:061D7100322E302E30007E
:031BC000015F00C2
:061815008B2D8A2E892FA5
:10181B00E47877F6EF24FE60171460161460162434
:10182B0014602B24F2605514603424FE705D80022A
:10183B008000E4802478777606E6FF7E00A82FAC44
:10184B002EAD2D7BFF7A1D7971120AD9803DAB2D00
:10185B00AA2EA92F7401120B457877F6802DAB2D8C
:10186B00AA2EA92F7440120B45AB2DAA2EA92F908F
:10187B000001E4120B5778777602800FAB2DAA2E5E
:0F188B00A92F7404120B45787776017877E6FF62
:01189A00222B
:101C2100900001120B18FE120AFFFDEE7877F6ED17
:101C310008F6787708E616187001161486064E70B5
:0D1C4100F1AB30AA31A932E4120B457F014E
:011C4E002273
:101C7B00120AFF14600304700B900001120B18136F
:101C8B009206800AAB30AA31A93274FF8007AB30C1
:0B1C9B00AA31A932E4120B457F0122A0
:101BF100120AFFFF7877700476018002A6077877D2
:101C0100E614700978587601121CF98004E478779B
:0F1C1100F67877E6AB30AA31A932120B457F0186
:011C200022A1
:0A1D6700E47858F6120B457F0122C4
:100003008B2D8A2E892F121A39AB2DAA2EA92F9048
:0D0013000001E4120B57E4120B457F02229E
:10166800120AFF7877F6900001120B187878F69036
:101678000003120B18FE900002120B18FDEE787989
:10168800F6ED08F6900004120B1870089000051289
:101698000B1860097879E64480F608E6F67878E66B
:1016A800FF30E00B18E630E004D2978002C297EFD3
:1016B80030E10C7877E630E104D2958002C2957863
:1016C80078E630E70E18E630E104C2948005121A75
:1016D80039D294A295E43325E0FFA297E4334F78FA
:1016E80077F6209404E64480F67877E6AB30AA31A2
:0716F800A932120B457F012E
:0116FF0022C8
:101D1200120AFF7855F6E4F67844F6AB30AA31A9F8
:071D220032120B457F012284
:061B8B008B2D8A2E892F2C
:101B9100052FE52F7002052E14F9120AFF7877F64A
:101BA100E6700276FF7877E6FFAB2DAA2EA92F12F9
:0E1BB1001A8DAB30AA31A932E4120B457F0128
:011BBF002203
:101CA600120AFF7877F6E6FF540304785DF6EF54E0
:101CB6000460047F0180027F00784FA607AB30AA3C
:091CC60031A932E4120B457F0143
:011CCF0022F2
:0615B6008B2D8A2E892F07
:1015BC00AB300532E532AA317002053114F9E41270
:1015CC000B4578797601AB2D052FE52FAA2E7002ED
:1015DC00052E14F9120AFF18F67878E6166078AB27
:1015EC002D052FE52FAA2E7002052E14F9120AFFD5
:1015FC0018F6E6FF543F787AF670027640EF548086
:10160C006027787AE62407FFE433FEEF7803CEC335
:10161C0013CE13D8F9787AF6E6FF2532F532E43595
:10162C0031F53118EF26F680B0787AE6FFAB2DAAAB
:10163C002EA92F121A8D787AE62407FFE433FEEFD9
:10164C007803CEC313CE13D8F9787AF6252FF52F5D
:0B165C00E4352EF52E80827879E6FF41
:011667002260
:101B1600120AFF7845F6900002120B18FE9000019B
:101B2600120B18FDEE785BF6ED08F6900004120B2A
:101B360018FE900003120B18FDEE7856F6ED08F627
:0D1B4600AB30AA31A932E4120B457F012219
:060046008B338A3489357A
:10004C008B398A3A893BE47843F6785EF685363C00
:10005C0085373D85383E74022538F538E43537F55B
:10006C0037E408F67878F608F6042535F535E435E6
:10007C0034F534AB330535E535AA34700205341448
:10008C00F9120AFF7850F67850E670030204CCABF4
:10009C00330535E535AA347002053414F9120AFF1C
:1000AC007846F6E6FF540270030203937878E67004
:1000BC000302017F785BE6FC08E6FD7859A604088C
:1000CC00A605EF5411640170267846E6FF7D4712B1
:1000DC000EE7785EEFF66402703A785908E6161867
:1000EC0086067001164E602C785FE660DC80257DFC
:1000FC00477F0E120EE7785EEFF6BF0213785908B1
:10010C00E6161886067001164E6005785FE660DF0D
:10011C00E47878F6785EE6640160030204CC7847F4
:10012C00E6FFAB360538E538AA377002053714F907
:10013C00EF120B4508E6FFAB360538E538AA3770E9
:10014C0002053714F9EF120B4508E6FFAB360538FC
:10015C00E538AA377002053714F9EF120B4508E69B
:10016C00FFAB360538E538AA377002053714F9EFBE
:10017C00120B457846E6FF541070030202B9AB33FC
:10018C00AA34A935120AFF784BF6900001120B180D
:10019C00784CF6900002120B18784DF69000031272
:1001AC000B18784EF674042535F535E43534F534F2
:1001BC007856E6FC08E6FD18A60408A605EF5401DF
:1001CC00603B785BE6FE08E6FF7859A60608A607B2
:1001DC007846E6FFE4FD120EE7785EEFF6BF0213F9
:1001EC00785908E6161886067001164E6005785F79
:1001FC00E660DD785EE6640160030204CC785BE6C1
:10020C00FE08E6FF7859A60608A6077846E6FF7DA5
:10021C0047120EE7785EEFF6BF0213785908E61620
:10022C001886067001164E6005785FE660DD785E14
:10023C00E66401703C7947E7785156784B66701E3E
:10024C0009E7785256784C66701409E7785356785B
:10025C004D66700A09E7785456784E6660137856E6
:10026C0008E6161886067001164E6005785FE66083
:10027C008C7947E7785156784B66701E09E77852AF
:10028C0056784C66701409E7785356784D66700AA8
:10029C0009E7785456784E666006785EE64410F6A8
:1002AC00785EE66401700302038C0204CC785BE692
:1002BC00FE08E6FF7859A60608A6077846E654011C
:1002CC00603C7878E6600302038C7846E6FFE4FD38
:1002DC00120EE7785EEFF6BF0213785908E616188F
:1002EC0086067001164E6005785FE660DD785EE686
:1002FC00640160030204CC7878760102038C7846A2
:10030C00E6FF7D47120EE7785EEFF6BF02137859D1
:10031C0008E6161886067001164E6005785FE660D2
:10032C00DD785EE6640160030204CC7847E6FFAB3F
:10033C00360538E538AA377002053714F9EF120B79
:10034C004508E6FFAB360538E538AA3770020537A5
:10035C0014F9EF120B4508E6FFAB360538E538AA61
:10036C00377002053714F9EF120B4508E6FFAB3670
:10037C000538E538AA377002053714F9EF120B452A
:10038C00E47879F60204BE7878E6700302042D78DE
:10039C005BE6FE08E6FF7859A60608A6077D477FB0
:1003AC000E120EE7785EEFF6BF0213785908E616C8
:1003BC001886067001164E6005785FE660DF785E81
:1003CC00E6640160030204CC7847E6FFAB360538DF
:1003DC00E538AA377002053714F9EF120B4508E619
:1003EC00FFAB360538E538AA377002053714F9EF3C
:1003FC00120B4508E6FFAB360538E538AA37700214
:10040C00053714F9EF120B4508E6FFAB360538E556
:10041C0038AA377002053714F9EF120B45E47878D7
:10042C00F6AB33AA34A935120AFF7847F6900001CF
:10043C00120B187848F6900002120B187849F690B7
:10044C000003120B18784AF674042535F535E4359B
:10045C0034F5347846E65420601D08E67851F67879
:10046C0048E67852F67849E67853F6784AE67854B6
:10047C00F6785E7601803B785BE6FE08E6FF7859FD
:10048C00A60608A6077846E6FF7D47120EE7785EBB
:10049C00EFF6BF0213785908E61618860670011697
:1004AC004E6005785FE660DD785EE6B4011278791F
:1004BC007601784306785FE6700678501602009352
:1004CC007850E66031AB330535E535AA347002055A
:1004DC003414F9120AFF7846F6E6FF54026007EF6F
:1004EC005410600D800074042535F535E43534F571
:1004FC003478501680CA785EE6640160030205D831
:10050C007878E670030205A4785BE6FE08E6FF78CF
:10051C0059A60608A6077D477F0E120EE7785EEFF8
:10052C00F6BF0213785908E6161886067001164EA7
:10053C006005785FE660DF785EE6640160030205C3
:10054C00D87847E6FFAB360538E538AA3770020590
:10055C003714F9EF120B4508E6FFAB360538E538D2
:10056C00AA377002053714F9EF120B4508E6FFABFA
:10057C00360538E538AA377002053714F9EF120B37
:10058C004508E6FFAB360538E538AA377002053763
:10059C0014F9EF120B4580347879E6602F785BE61E
:1005AC00FE08E6FF7859A60608A607E4FD7F0E12A2
:1005BC000EE7785EEFF6BF0213785908E616188638
:1005CC00067001164E6005785FE660DF7843E6AB97
:1005DC003CAA3DA93E120B45785EE6AB3CAA3DA970
:0C05EC003E900001120B57C3E53899FF48
:0105F80022E0
:101D4000E47877F6853036853137853238120046AB
:041D50007877EFF6BB
:011D5400226C
:060CC2008B338A348935F2
:100CC800E47843F6785EF685363985373A85383BD9
:100CD80074032538F538E43537F537E408F6042584
:100CE80035F535E43534F534AB33FAA935900001E0
:100CF800120B18120AFFFF7850F674022535F535E5
:100D0800E43534F534EF7003020EBFAB330535E537
:100D180035AA347002053414F9120AFF7846F6E64B
:100D2800FF54027003020E1BEF5401603B785BE630
:100D3800FE08E6FF7859A60608A6077846E6FFE407
:100D4800FD120EE7785EEFF6BF0213785908E61633
:100D58001886067001164E6005785FE660DD785EDD
:100D6800E664016003020EBF7850E6167003020EB7
:100D7800BFE670097846E654016002760E785BE6B5
:100D8800FE08E6FF7859A60608A6077846E6FF7D1E
:100D980047120EE7785EEFF6BF0213785908E61699
:100DA8001886067001164E6005785FE660DD785E8D
:100DB800E664016003020EBF7847E6FFAB360538EC
:100DC800E538AA377002053714F9EF120B4508E623
:100DD800FFAB360538E538AA377002053714F9EF46
:100DE800120B4508E6FFAB360538E538AA3770021E
:100DF800053714F9EF120B4508E6FFAB360538E561
:100E080038AA377002053714F9EF120B45784306F4
:100E1800020D707850E616606FAB33AA34A935120C
:100E28000AFF7847F6900001120B187848F69000F0
:100E380002120B187849F6900003120B18784AF63C
:100E480074042535F535E43534F534785BE6FE0869
:100E5800E6FF7859A60608A6077846E6FF7D4712FA
:100E68000EE7785EEFF6BF0213785908E616188683
:100E7800067001164E6005785FE660DD785EE66410
:100E8800017034784306808B785BE6FE08E6FF78CD
:100E980059A60608A607E4FD7F0E120EE7785EEF56
:100EA800F6BF0213785908E6161886067001164E22
:100EB8006005785FE660DF7843E6AB39AA3AA93B7C
:100EC800120B45AB39AA3AA93B900001E4120B5723
:0E0ED800785EE6900002120B57C3E53899FFD2
:010EE60022E9
:06189B008B2D8A2E892F1F
:1018A1007858E6147018853036853137853238AB73
:1018B1002DAA2EA92F120CC27877A6078021AB3052
:1018C100AA31A932E4120B45AB30AA31A9329000FA
:1018D10001120B57900002E4120B5778777603AB95
:1018E1002DAA2EA92F900003120B1854026006781E
:1018F10077E6F68025900002120B18900001120B7A
:101901001875F004A42404FFE435F0FEEF7810C349
:0E19110033CE33CED8F9787746F67877E6FFF6
:01191F0022A5
:101B5300900001120B187847F6900002120B1878C8
:101B630048F6900003120B187849F6900004120B04
:101B730018784AF67D47E4FF120EE7AB36AA37A979
:081B830038E4120B457F01223A
:101C4F007858E61470128530368531378532381260
:101C5F001B537877A607800FAB30AA31A93274FFD8
:0B1C6F00120B45787776017877E6FFCE
:011C7A002247
:0C12F4007869E6FF78636670030214E07E
:101300007E0074002FF9EE3401752701F528892934
:101310007862E62400F9EE3402752A01F52B892C57
:101320007869744026F6AB27AA28A929120AFFFF7C
:10133000AB2A052CE52CAA2B7002052B14F9EF1211
:101340000B45AB270529E529AA287002052814F9C1
:10135000120AFF120C9613B10013DA0113EF0214F4
:101360000403149504138705139C0614A90814108C
:101370000914250A143110144511145912146D134F
:1013800014811D000014C1852A30852B31852C3233
:10139000AB27AA28A929121D400214BB852A308533
:1013A0002B31852C32AB27AA28A92912189B0214AD
:1013B000BBAB27AA28A929120AFFFFAB2AE52C24D8
:1013C00001F9E4352BFA1218157876EFF6AB2AAA54
:1013D0002BA92C120B45060214D3852A30852B31FC
:1013E000852C32AB27AA28A929121C7B0214BB85A5
:1013F0002A30852B31852C32AB27AA28A929121B2C
:10140000F10214BBAB2AAA2BA92C121D670214BB34
:10141000852A30852B31852C32AB27AA28A92912A1
:101420001C210214BBAB2AAA2BA92C120003021404
:10143000BB852A30852B31852C32AB27AA28A929D8
:101440001216688076852A30852B31852C32AB27A1
:10145000AA28A929121D128062852A30852B318580
:101460002C32AB27AA28A929121B8B804E852A3043
:10147000852B31852C32AB27AA28A929121CA680DE
:101480003A852A30852B31852C32AB27AA28A92909
:101490001215B68026852A30852B31852C32AB2754
:1014A000AA28A929121B168012852A30852B31857E
:1014B0002C32AB27AA28A929121C4F7876A60780C0
:1014C00012AB2AAA2BA92C90FFFF74FF120B57789E
:1014D0007676017876E6047965F77862744026F6C8
:0114E00022E9
:101D550075A15575A1AAE5B954F84406F5B975A15B
:021D6500FF225B
:10002600EF4E601505A105A105A105A105A105A134
:0A00360005A1EF1F70EA1E80E7220B
:101D2900AD07AC06ED4C600E7FE87E03120026ED90
:071D39001D70F11C80EE2279
:1010F5000600FF0901A101150026FF0075089540AE
:101105000901810295400901910295400901B10249
:10111500C01201010200000040280D040200010177
:101125000203010902620003010080320904000084
:1011350002FF0000040705020240000107058302C3
:10114500400001080B02020202010309040200012A
:1011550002020100052400100105240100000424F9
:101165000202052406000107058203100040090458
:101175000300020A00000007050102400000070500
:1011850081024000000403090424036C0063006B22
:1011950000660062002E0063006F006D002D007672
:1011A5000031002E0031002E00300057002403448A
:1011B50000410050004C0069006E006B00200043A8
:1011C500004D005300490053002D004400410050DC
:1011D500000803410052004D001E03440041005029
:1011E500004C0069006E006B002D00430044004375
:1011F500004500780074001A0343004D0053004970
:101205000053002D004400410050002000760032BC
:1012150000118A11D611B2118E11FC11DE050F28AD
:101225000002071002000000001C100500DF60DD51
:10123500D88945C74C9CD2659D9E648A9F00000352
:1012450006AA0020000A00000000000306AA000804
:101255000002000000A0001400030057494E55533A
:1012650042000000000000000000008400040007A8
:10127500002A0044006500760069006300650049A6
:10128500006E007400650072006600610063006511
:101295000047005500490044007300000050007BE2
:1012A5000043004400420033004200350041004441
:1012B500002D0032003900330042002D0034003685
:1012C50000360033002D0041004100330036002D6B
:1012D500003100410041004500340036003400363D
:0F12E5000033003700370036007D0000000000A6
:101BC300017500026A0000076E00A25D4F00000865
:051BD300031D003800B5
:1019E000C2EAE4F5E275D18053D1FB53E2BF75ED55
:1019F0000075EC0053EAF375DC0275EF0375EE0039
:101A000043EAC043EA1075D21275E50175E400752A
:101A1000E70275E60043EB4853EBEE75D41275D63A
:101A20001A43EA04F5E343E22943D10175D8FF756F
:091A3000E107D2EAF5D3F5D52255
:030043000205F9BA
:0D05F900C0E0C0F0C083C082C0D075D00843
:1006060020D9030209D6E5D9543F70030209A8147C
:10061600604E24E1700302094C14603324FE601D11
:1006260024F36048242E60030209D420DE03020965
:10063600D47863744026F6E6F5E40209D478757634
:100646000075D700E5D654FC4402F5D60209D475E8
:10065600D300E5D254FC4402F5D2121AD60209D4CC
:1006660020DE030209D41219840209D485DB21E5B0
:100676002164086003020925900006E0786CF6A361
:10068600E0600276FF752100900001E0786DF6903B
:100696000000E0546024E0700302086D24E070035B
:1006A6000208B7244060030208DD786DE6B40B004B
:1006B600400302086B9006C2F8282873020850020D
:1006C600079402086B0207CF02086B02076802064E
:1006D600E302086B02077202078A0208E090000331
:1006E600E024FE601E14602A24F4605524ED606048
:1006F6002421706B751AFF751B11751C1675211256
:100706000208E0751AFF751B11751C287521620217
:1007160008E0900002E0FFC394065043EF25E02472
:1007260016F582E43412F583E493FE740193AA0E5F
:10073600F97BFF8B1A8A1BF51C120AFFF5210208AA
:10074600E0751AFF751B12751C227521280208E038
:10075600751AFF751B10751CF57521210208E0023C
:1007660008DD900002E0786CF60208E07860E6901A
:100776000000F0786CE6C3940150030208E075218E
:10078600010208E0900002E07860F60208E09000BE
:1007960000E0541F6402702E900004E024FE601DE9
:1007A6002481600E14701CE5D454BC4402F5D402B6
:1007B60008E0E5D254BC4402F5D20208E053D473F3
:1007C6000208E00208DD0208DD900000E0541FFD8B
:1007D6007020900003E0FE900002E0FBEB64014E07
:1007E600700D90112F9330E5030208E00208DD0238
:1007F60008DDED64027050900003E0FE900002E018
:10080600FDED4E703F900005E0FE900004E0FDED2A
:10081600FFEE702DEF24FE60122481601914702102
:10082600E5D454BF4403F5D40208E0E5D4547F442C
:100836000CF5D40208E0E5D254BF4403F5D2020811
:10084600E00208DD0208DD0208DD751A00751B00EE
:10085600751C6A786CE6FFC3940240057521028018
:10086600798F2180758070900000E0541F640170BC
:1008760069786DE624FE606214605F24FA24FD50F8
:100886005924EC605514601914604F2421702078A7
:100896006CE6FFC394404005752140803D8F218062
:1008A60039751A00751B00751C6E752107802B8023
:1008B60026900000E0541F7021786DE624E0701544
:1008C600900004E0B40713751AFF751B12751C4AD5
:1008D6007521AA800580007521FFE5216044F4603A
:1008E60041786CE6D395214002A621786CE6FFC3D9
:1008F600944040047F4080008F217E0078007C0079
:100906007D01AB1AAA1BA91C120AD9C3786CE695FD
:1009160021F6E521251CF51CE4351BF51B80037526
:1009260021FFE521B4FF0A786D76FF75DCCF020959
:10093600D4E521D3944050058521DD800375DD0083
:1009460075DCC00209D4786DE624FB604224E560BC
:1009560004241A7045786CE6FFC3944040047F4037
:1009660080008F217E0078007C007D01AB1AAA1BD7
:10097600A91C120AD9C3786CE69521F6E521251C37
:10098600F51CE4351BF51B8521DD63DC40803FE566
:10099600E35480786C46F5E3800375DD0075DC0270
:1009A600802C85DB21786DE66420701F30DE1CAF5D
:1009B600DBFE087C00FD7B017A007900120AD97BF8
:1009C600007A00796E12192075DD0063DC80C2D9C9
:1009D60030D81675DC0275D21075D41275E300C2D4
:1009E600DAC2D978757600C2D830DA09C2DAE5DA21
:0809F60030E205800375D8FF13
:0B09FE00D0D0D082D083D0F0D0E03207
:10178C00E4F526121D557F057E00121D29121CD072
:10179C001219E0D2AFE4F5D3F5D57863F67869F693
:1017AC007862F67864F67875F6C206F518F5195372
:1017BC0092EF4393105392DF4393207860E660FBE3
:1017CC001212F47875E66401601C7864E6FF7862A6
:1017DC00666013787576017865E6F5D78FE653D693
:1017EC00FC18744026F6E5A254C024FFB39291E590
:1017FC00B930E3CCE4F5E275D1807F0AFE121D29E5
:09180C00AA1EA91F120CBC80B732
:101CF90053927F439380D2975392DF439320D29597
:091D09005392BF5393BFC2942210
:101A390075331EE4F534F535F5367D33FF120EE7BF
:101A4900E4F5337D337F08120EE7753312753623BB
:101A59007D337F01120EE775330C7534EDE4F535EE
:101A69007536E07D337F05120EE7753307E4F534EB
:101A79007535FA7536057D337F0D120EE77D337F97
:041A89000E020EE754
:061A8D008B338A34893519
:101A9300E4787BF608F6AE071FEE6036787CE670D6
:101AA30016AB330535E535AA347002053414F91243
:101AB3000AFF18F6087608787BE6FE30E004D29534
:101AC3008002C295C297EEC313787BF60816D297AD
:021AD30080C4CD
:011AD50022EE
:100EE700E4787EF6D295C297D297787CA607E6FE7D
:100EF700139295C297D297787EEE26F6EFC31378B2
:100F07007CF6E6FE139295C297D297787EEE26F688
:100F1700EF1313543F787CF6E6FE139295C297D2EF
:100F270097787EEE26F6EF131313541FFE787CF6A0
:100F3700139295C297D297787EEE26F6E61392958E
:100F4700C297D297C295C297D297D295C297D29796
:100F5700D295785DE67880F67880E66007C297D20A
:100F6700971680F4C297A295E433787CF6D297E679
:100F770018F6C297A295E43308F6D297E625E0184B
:100F870046F6C297A295E43308F6D297E625E02500
:100F9700E01846F664016003021085EF30E172E461
:100FA700787DF608F608F678807608C297A295E469
:100FB70033787CF6D297E6FE787E26F618E6C313DA
:100FC700FCF6EEC433333354804CF6788016E67063
:100FD700DAED600B787DE6FE787FE62DF8A60678D9
:100FE7007F06E6B404C1C297A295E433787CF6D2B3
:100FF70097797EE76630E003187608785DE67880B3
:10100700F67880E66007C297D2971680F4D295806B
:1010170057785DE67880F67880E66007C297D297C2
:101027001680F4D295E4787EF608F6787FE6FEC35C
:101037009404502AED2EF8E6787DF67880760878C5
:101047007DE6FE139295C297D29708EE26F6EEC379
:101057001318F6788016E670E6787F0680CD787EDE
:10106700E6139295C297D2977845E67880F660772F
:10107700C2957880E66070C297D2971680F4787B25
:10108700E6FE64026005EE64047048784FE660137C
:10109700EF5402600E78807621C297D29778801637
:1010A700E670F6785DE67880F67880E66007C297A6
:1010B700D2971680F4D295784FE66015EF540270F8
:1010C70010C29578807621C297D297788016E670FD
:1010D700F68014785DE624217980F77880E660074A
:0D10E700C297D2971680F4D295787BE6FF71
:0110F40022D9
:101BD800C102014100C103014200C100C10101402D
:081BE80000013F00C105C1042A
:101CD000439603439703C2CDC2CC438780E5895422
:101CE0000F4420F58943C9A0758DF3D28E759850A5
:091CF000A2BCE43342B8D2AC22DC
:10192000E4F525F524F523F522900003120B18F5B4
:1019300022900002120B18F523900001120B18F5EB
:1019400024120AFFF525C2ACE47F08FEFDFCAB259E
:10195000AA24A923A822120B79E42FFFEE3436FE25
:10196000ED346EFDEC3401FCE47B10FAF9F8120C56
:1019700004AB25AA24A923A822120C04EFF404F531
:031980008DD2AC59
:011983002241
:030023000214E1E3
:1014E100C0E0C083C082C0D075D0103098493004AC
:1014F10023D201AF3F053F74C02FF582E43403F5D9
:1015010083E599F020002E853FD3753F0053D2FC2F
:10151100C2048021D200AF3F053F74802FF582E4E1
:101521003403F583E599F020010B853FD3753F0026
:1015310053D2FCD204C298309972300535E540C3CC
:101541009542500EAF40054074402FF582E43403BC
:101551008033754000300216C205AF40054074006B
:101561002FF582E43403F583E0F59953D2F3C203F6
:101571008038E540C395415013AF40054074002FBA
:10158100F582E43403F583E0F599801E754000305F
:101591000316D205AF40054074402FF582E43403B1
:1015A100F583E0F59953D2F3C202C299D0D0D0822B
:0515B100D083D0E03200
:10198400C2ACE5D230E72A85DB41200318C205AF9B
:1019940040054074002FF582E43403F583E0F599A3
:1019A40053D2F38008E5D254F34408F5D2D202802E
:1019B4002885DB42200218D205AF40054074402F31
:1019C400F582E43403F583E0F59953D2F38008E516
:0C19D400D254F34408F5D2D203D2AC2266
:101AD600C2ACE5D230E61C30010D853FD3E4F53FBC
:101AE60053D2FCC2048008E5D254FC4402F5D2C2AB
:101AF60000801A30000D853FD3E4F53F53D2FCD267
:101B0600048008E5D254FC4402F5D2C201D2AC22CC
:03000000021700E4
:0C170000787FE4F6D8FD75818002174761
:100A0900E709F608DFFA8046E709F208DFFA803ECF
:100A190088828C83E709F0A3DFFA8032E309F608BC
:100A2900DFFA8078E309F208DFFA807088828C8324
:100A3900E309F0A3DFFA806489828A83E0A3F608D8
:100A4900DFFA805889828A83E0A3F208DFFA804CB2
:100A590080D280FA80C680D4806980F28033801089
:100A690080A680EA809A80A880DA80E280CA8033F2
:100A790089828A83ECFAE493A3C8C582C8CCC5836A
:100A8900CCF0A3C8C582C8CCC583CCDFE9DEE7803A
:100A99000D89828A83E493A3F608DFF9ECFAA9F0B9
:100AA900EDFB2289828A83ECFAE0A3C8C582C8CC0F
:100AB900C583CCF0A3C8C582C8CCC583CCDFEADE28
:100AC900E880DB89828A83E493A3F208DFF980CC8A
:100AD90088F0EF60010E4E60C388F0ED2402B40483
:100AE9000050B9F582EB2402B4040050AF2323452A
:060AF9008223900A5973EC
:100AFF00BB010689828A83E0225002E722BBFE02F5
:090B0F00E32289828A83E4932227
:100B1800BB010CE58229F582E5833AF583E0225092
:100B280006E92582F8E622BBFE06E92582F8E222DC
:0D0B3800E58229F582E5833AF583E49322F6
:100B4500BB010689828A83F0225002F722BBFE018F
:020B5500F32289
:100B5700F8BB010DE58229F582E5833AF583E8F0D4
:100B6700225006E92582C8F622BBFE05E92582C880
:020B7700F22268
:100B7900E88FF0A4CC8BF0A42CFCE98EF0A42CFC1B
:100B89008AF0EDA42CFCEA8EF0A4CDA8F08BF0A499
:100B99002DCC3825F0FDE98FF0A42CCD35F0FCEBF8
:100BA9008EF0A4FEA9F0EB8FF0A4CFC5F02ECD39BD
:0F0BB900FEE43CFCEAA42DCE35F0FDE43CFC222A
:100BC80075F008758200EF2FFFEE33FECD33CDCCE4
:100BD80033CCC58233C5829BED9AEC99E582984067
:100BE8000CF582EE9BFEED9AFDEC99FC0FD5F0D644
:100BF800E4CEFBE4CDFAE4CCF9A88222B800C1B96E
:100C08000059BA002DEC8BF084CFCECDFCE5F0CBAB
:100C1800F97818EF2FFFEE33FEED33FDEC33FCEBE4
:100C280033FB10D703994004EB99FB0FD8E5E4F99F
:100C3800FA227818EF2FFFEE33FEED33FDEC33FC8C
:100C4800C933C910D7059BE99A4007EC9BFCE99A80
:100C5800F90FD8E0E4C9FAE4CCFB2275F010EF2FC5
:100C6800FFEE33FEED33FDCC33CCC833C810D707C5
:100C78009BEC9AE899400AED9BFDEC9AFCE899F800
:0E0C88000FD5F0DAE4CDFBE4CCFAE4C8F92293
:100C9600D083D082F8E4937012740193700DA3A3ED
:100CA60093F8740193F5828883E473740293686001
:060CB600EFA3A3A380DF01
:060CBC008A838982E473C3
:10170C0002178CE493A3F8E493A34003F68001F250
:10171C0008DFF48029E493A3F85407240CC8C333DE
:10172C00C4540F4420C8834004F456800146F6DFAD
:10173C00E4800B0102040810204080901BC0E47E62
:10174C00019360BCA3FF543F30E509541FFEE493A2
:10175C00A360010ECF54C025E060A840B8E493A369
:10176C00FAE493A3F8E493A3C8C582C8CAC583CA94
:10177C00F0A3C8C582C8CAC583CADFE9DEE780BE4C
:011BF00000F4
:00000001FF
